:020000040800F2
:100000000050002009090008790900087909000852
:100010007909000879090008790900080000000042
:10002000000000000000000000000000310900088E
:100030007909000800000000790900087909000822
:100040007909000879090008790900087909000888
:100050007909000879090008790900087909000878
:100060007909000879090008790900087909000868
:100070007909000879090008790900087909000858
:100080007909000879090008790900087909000848
:100090007909000879090008790900087909000838
:1000A0007909000879090008790900087909000828
:1000B0007909000879090008790900087909000818
:1000C0007909000879090008790900087909000808
:1000D00079090008790900087909000879090008F8
:1000E0007909000879090008790900080000000072
:1000F0000000000000000000000000000000000000
:0C01000000000000000000005FF808F1A3
:10010C0010B5054C237833B9044B13B10448AFF345
:10011C0000800123237010BD680000200000000047
:10012C00AC0A000808B5034B1BB103490348AFF3F5
:10013C00008008BD000000006C000020AC0A000824
:10014C00204A1068204BD968C90733D4DA68900666
:10015C0044BF2022DA60DA68D10606D4DA69D20705
:10016C0003D4D86810F004002BD0174AD36813F0CE
:10017C00100305D01549CB6943F00203CB61102362
:10018C00D268500706D5114943F00403CA6942F0FE
:10019C000102CA610C4AD169C90708D50B48C1696B
:1001AC0041F00401C161D16921F00101D16101204B
:1001BC00D36070474CF2503113681B1A8B42C1D973
:1001CC00032070470001002000200240E0000020C6
:1001DC0070B559B3164B1A792ABB05221A714FF414
:1001EC000052144C144D2261EA6822F00C0242F0C9
:1001FC000802EA60104D2A6812F0800F2A46F9D0E6
:10020C0010F8016B013989B26E600029F2D11168C6
:10021C004906FCD5D16821F00C01D1604FF4005295
:10022C00626100221A711879C0B270BD0120FCE71E
:10023C00840000200010014000480040704700007E
:10024C00054B82B09A6902439A619B6918400190F0
:10025C00019B02B0704700BF00100240704702467D
:10026C0001444FF6FF7010B58A420ED0092412F8E3
:10027C00013B5840013CF7D04310C00744BF83F406
:10028C00204383F0010398B2F4E710BD70470000DF
:10029C000D4A0E48D36823F40053D3600C4B93FAE9
:1002AC00A3F2B2FA82F293FAA3F30F2192009140D7
:1002BC004268B3FA83F322EA010204219B0001FA9B
:1002CC0003F31343436070470048004000100140A3
:1002DC0020002004F0B50D68C5F30F2595FAA5F4A0
:1002EC00B4FA84F435FA04F301D10120F0BD0123F2
:1002FC00A3402B425FD0072C89BF4FF0011340F273
:10030C000113A4F10802934094BFA34043F080630F
:10031C001E0E93FAA3F2B2FA82F293FAA3FC0F2701
:10032C00BCFA8CFC9200974082594FEA8C0C22EA62
:10033C0007024F684FEA132E07FA0CF73A43825123
:10034C00C2689EFAAEF7B7FA87FC0F6922EA0E0272
:10035C0007FA0CF73A43C2604A6822F00802012AF5
:10036C0029D193FAA3F2B2FA82F293FAA3FC0327EF
:10037C00BCFA8CFC9200974082594FEA8C0C22EA12
:10038C0007028F6807FA0CF73A43825193FAA3F7E6
:10039C00B7FA87F793FAA3F34FF0040CB3FA83F38D
:1003AC00BF000CFA07F722EA0702CF689B0007FA96
:1003BC0003F313438351013494E7000030B5032356
:1003CC00092587B0CDE902530023494D0493EB690D
:1003DC00846843F48023EB61EB69082003F48023E9
:1003EC000093009BFFF72CFF424B01A9424801935D
:1003FC00FFF770FF0423DFF820C10DEB03013E482B
:10040C00CDE901C3FFF766FF3C4A2946D36813F4D4
:10041C00005F48D1D36823F4B05323F00C0343F0AE
:10042C000403D360136923F440531361536923F419
:10043C00407353616B6803F00C03082B55D16B6848
:10044C00D80349BF6B682E4BC3F340435A1C44BFBF
:10045C002C4BB3FBF2F36A68C2F383420232534370
:10046C004868294DC0F30310285C4A68C3402748EC
:10047C00C2F30222825C496833FA02F213D094B1BF
:10048C0019235343A4006422B3FBF4F3B3FBF2F13E
:10049C0002FB11331B013233B3FBF2F3174A03EBAC
:1004AC0001139BB29360154C10202369184D23F453
:1004BC0090432361636923F02A036361FFF7C0FE55
:1004CC000123144A0221CDE9012300232846CDE95A
:1004DC00031301A9FFF7FEFE4FF400536B61E368B1
:1004EC0043F40053E36007B030BD064BB8E700BFE0
:1004FC000010024004000404000C014000480040BD
:10050C0000093D0000127A00C40A0008D40A000851
:10051C0000100140200020040800080410B5044617
:10052C000C2100F025FA204610BD10B50446082118
:10053C0000F01EFA204610BD2DE9F047854BC0B0E7
:10054C001A7902F0FF04002A43D106224FF400511D
:10055C001A71814A81485161C26822F00C0242F042
:10056C000402C260026842686A467C49086810F05E
:10057C00200019D10D68ED06F7D5CA6822F00C02DF
:10058C00CA60187114B31B79DBB2FBB921466846FB
:10059C00FFF765FED0B99DF80130643B032B15D8ED
:1005AC00DFE803F0192B1E3A01344968A4B2FF2C82
:1005BC0002F8011BD9D96949B4F5807FCA6822F0C9
:1005CC000C02CA604FF000021A71DCD140B0BDE8D9
:1005DC00F0870024EFE721466846FFF7F9FDF5E7C1
:1005EC00BFF34F8F5E495F4BCA6802F4E06213435E
:1005FC00CB60BFF34F8F00BFFDE78022DDF8021008
:10060C000DF1060000F0E4F986216846FFF727FE9D
:10061C008821ADF88600DFE7882CD7D1524BDDF866
:10062C0002601A69120621D434466FF001090DF1EB
:10063C00060806F18003A34240F28980C4F309073F
:10064C004A4D002F46D12B7E012B1AD13C46464AEF
:10065C00136943F0800313610A216846CDF8064004
:10066C00FFF7FDFD0C21ADF80A00B5E7404A5A60D2
:10067C0002F188325A601B691B06D5D54FF0EE3457
:10068C00EAE701232B76FFF75BFD00285DD02F7680
:10069C00DCE70023344FEB613B6943F002033B6121
:1006AC00C7F814903B6943F040033B61FFF748FDEA
:1006BC003B6923F002033B6138B909F5806904F505
:1006CC0080639945E5D34FF0FF390023B9F1FF3F23
:1006DC002B763CD12B7E08F10407012BB7D00123DC
:1006EC00D8F800802B76FFF72BFD38BBDFF878A00D
:1006FC00E861DAF810201FFA88F342F00102CAF818
:10070C0010202380FFF71CFDDAF8103023F00103D2
:10071C00CAF8103090B9E861DAF810304FEA18488E
:10072C0043F00103CAF81030A4F80280FFF708FD6B
:10073C00DAF8103023F00103CAF8103000232B76BE
:10074C00002884D1B846043473E7A146B7E74C4679
:10075C007DE700BF840000200010014000480040ED
:10076C0000ED00E00400FA0500200240E00000204B
:10077C002301674530B50C4A0C4D002415604FF42D
:10078C00E1350B480B490378147141F8232095602F
:10079C00094A14719C1C0133DBB241F82320074B2E
:1007AC000470136030BD00BF84000020E40A000810
:1007BC009000002094000020D4000020040B0008BE
:1007CC0007B50120FFF73CFD314B3248DA6942F0A6
:1007DC008052DA61DA6902F080520192019AC168A2
:1007EC002D4A21F4E0610904090C0A432B49C2602B
:1007FC000A6822F0070242F002020A600A681A68CC
:10080C0042F480321A601A689103FCD55A6822F4BB
:10081C007C1242F4E8125A601A6842F080721A6034
:10082C001A689201FCD55A6822F0F0025A605A6894
:10083C0022F4E06242F480625A605A6822F46052F8
:10084C005A605A6822F0030242F002025A605A6857
:10085C0002F00C02082AFAD1114B124A00245A60F9
:10086C0005229C601A601A6842F004021A600E4B52
:10087C001A78E3B29A4207D90C4A013452F8230091
:10088C0003689B689847F2E7FFF756FEFCE700BF4A
:10089C000010024000ED00E00003FA0500200240C9
:1008AC0010E000E03F1901009000002094000020AF
:1008BC000F4B1A6842F001021A6059680D4A0A403F
:1008CC005A601A6822F0847222F480321A601A6814
:1008DC0022F480221A605A6822F4FE025A604FF405
:1008EC001F029A604FF00062034B9A60704700BF82
:1008FC00001002400000FFF800ED00E010B5074CBE
:10090C0023685A1C00D09847054B04F500749C4290
:10091C00F6D1BDE8104000F005B800BF0410000887
:10092C0004820008002103E00B4B5B584350043158
:10093C000A480B4B42189A42F6D30A4A02E00023AB
:10094C0042F8043B084B9A42F9D3FFF7B1FF00F091
:10095C0013F8FFF735FF7047280B00080000002044
:10096C00640000206800002014010020FFF7DABFAB
:10097C0000F000B800F024B870B500260C4D0D4CFA
:10098C00641BA410A64209D100F08AF800260A4D77
:10099C000A4C641BA410A64205D170BD55F8043B4B
:1009AC0098470136EEE755F8043B98470136F2E7D5
:1009BC001C0B00081C0B00081C0B0008240B000867
:1009CC00024B0146186800F011B800BF000000206F
:1009DC000A44914200F1FF3300D1704710B511F871
:1009EC00014B914203F8014FF9D110BD38B50546C2
:1009FC00002943D051F8043C0C1F002BB8BFE4185D
:100A0C0000F040F81E4A1368104633B96360146056
:100A1C002846BDE8384000F03BB8A3420AD921680B
:100A2C006218934201BF1A685B68521822606360B7
:100A3C000460EDE71A465B680BB1A342FAD9116862
:100A4C005018A0420BD12068014450188342116009
:100A5C00DED118685B68014411605360D8E702D995
:100A6C000C232B60D4E7206821188B4201BF196836
:100A7C005B680918216063605460C9E738BD00BF2A
:100A8C0004010020014800F009B800BF0C0100204F
:100A9C00014800F004B800BF0C01002070477047FB
:100AAC00F8B500BFF8BC08BC9E467047F8B500BF4F
:080ABC00F8BC08BC9E4670471F
:100AC40000000000000000000102030406070809FA
:100AD4000000000001020304000000000000000008
:100AE4004902000829050008C90300089902000802
:100AF400990200089D0200080000000000000000A8
:100B040069020008370500089902000899020008E4
:080B1400990200089902000893
:080B1C00310100088107000807
:040B24000D010008B7
:100B28000400002000000000000000000000000099
:100B380000000000000000000000000000000000AD
:100B4800000000000000000000000000000000009D
:100B5800000000000000000000000000000000008D
:100B6800000000000000000000000000000000007D
:100B7800000000000000000000000000000000006D
:040B88000000000069
:0400000508000909DD
:00000001FF
